:020000000928CD
:100008007E148031042A7E1009000A282030F80165
:10001800F901FA01FB01FC01FD01840000308500B3
:100028002630F2217E10200080292000911D080032
:1000380024001408F7002530F7059419D628E42879
:1000480011082000A501A50AE9281108F7002000D9
:10005800250B34287708FB000230FA01A500E928AF
:1000680002302506031DE9287B0B45287A08031D65
:1000780041287708F900FA0A45287A0B45287708B5
:10008800F80002307B06031DE9287A08263E860020
:1000980087017708810020307A020318E928FA0AD4
:1000A800E9287B0B59287908E92103307B06031DD1
:1000B80088287A08031D8828F7017908F10078084C
:1000C800F000B02171082000A1007008A000770896
:1000D800263E86008701210881007708273E860092
:1000E80020088100F80A0319F90A2030F70AF70AEC
:1000F8007702031C61287A08263E86000108E92158
:1001080020307A02031CFA0A04307B06031D972864
:100118007908F1007808F00099212030F8070318D1
:10012800F90A0030E92105307B06031DAA28790861
:10013800F1007808F0002630F2000030F3002E219C
:100148001030F8070318F90A0030E92106307B0659
:10015800031DB9287C08E921FE307C06031DB92857
:10016800F701F70A770FB528010007307B06031D52
:10017800C02820002208E92108307B06031DE92851
:100188000030E921E9287B0BCB287808E9210330E6
:100198007B06031DE9287A08263E860087010108A8
:1001A800E9214F287708013A03192428043A03194A
:1001B8005528243A03192928053A0319C728E92894
:1001C800141EE92800002000A50120009111240038
:1001D80095161516080022294130FD0A7D06031DD3
:1001E8000034A401A40AFD0100347D08031DFE2883
:1001F80003305E211530FD0A7D06031D00340230F0
:100208001C2903305E2103301C2903305E21043091
:100218001C2902305E2105301C2902305E2106307F
:100228001C2920305E2107301C2900305E2108304F
:100238002000A400003408305E2101342000240886
:1002480084000930040203180034E03081310407C7
:10025800820000347008F4007108F5007308F60095
:100268008B132300750892007408910072088400AB
:1002780076088500151315159516120093001200BF
:10028800940011080F3A0F39031953295530960075
:10029800AA309600951400000000910A4129951291
:1002A80055309600AA3096009514000000001511EC
:1002B8008B170800F000701C642922008C16662930
:1002C80022008C12F01C6B2922000C166D292200CA
:1002D8000C12701D722922008E16742922008E12AB
:1002E800F01D792922000E167B2922000E128C148B
:1002F800000022008C100800C421D621FF30F00035
:100308000730F100B02171082000A3007008A20096
:1003180019207C0803190B1D8C29EF20003A0319BA
:100328009729FC01FC0A0B118C297008F20071084E
:10033800F3008B13230072089100730892001513C1
:100348001516151555309600AA309600951400001C
:10035800000015118B1708007008F2007108F300EF
:1003680023007208910073089200151315140000F9
:10037800000023001408F100F0011308F00408003D
:10038800FA30210099001A1A1A1CC7298B0101306A
:10039800950022008C018E01C43021008C00C330EE
:1003A8008E000800240091019401A030920036309C
:1003B8009500603097040800F028F92805290929D4
:1003C8000D291129152919291F29F0002400951331
:1003D80070089100951BEA29151608006400800131
:0803E8000131890BF3290034F7
:020000040001F9
:0400000001000100FA
:04000E00ECFBFED732
:00000001FF
